{
  "transactions": [
    {
      "hash": "0x0d6c88831487da537214c60bb1aba97ddd29f428beccc5406aa383670aa61758",
      "transactionType": "CREATE",
      "contractName": "AvsGovernanceLogic",
      "contractAddress": "0x72a5016ecb9eb01d7d54ae48bffb62ca0b8e57a5",
      "function": null,
      "arguments": [
        "0xE2528c2E95Bd0A985E067E7C28eC53A3f5255b41"
      ],
      "transaction": {
        "from": "0x88826a677adb340f0c7b8ccd6af6ad96a40b0085",
        "gas": "0x43612",
        "value": "0x0",
        "input": "0x60a034607457601f61036638819003918201601f19168301916001600160401b03831184841017607857808492602094604052833981010312607457516001600160a01b038116908190036074576080526040516102d9908161008d8239608051818181606a0152818160b001526101620152f35b5f80fd5b634e487b7160e01b5f52604160045260245ffdfe6080806040526004361015610012575f80fd5b5f905f3560e01c908163471f9e64146101fe57816394e7a3f0146101f0578163e9ecc1cb1461014557508063ed8ad8361461009c5763f0b351d914610055575f80fd5b346100995780600319360112610099576040517f00000000000000000000000000000000000000000000000000000000000000006001600160a01b03168152602090f35b80fd5b503461009957806100ac36610229565b50507f00000000000000000000000000000000000000000000000000000000000000006001600160a01b03169050803b15610141576040805163afffb6ad60e01b81526001600160a01b0393909316600484015260248301525f604483015282908290606490829084905af18015610136576101255750f35b8161012f9161026d565b6100995780f35b6040513d84823e3d90fd5b5050fd5b9050346101ec5760203660031901126101ec57610160610213565b7f00000000000000000000000000000000000000000000000000000000000000006001600160a01b031690813b156101ec57636fbc171760e01b83526001600160a01b03166004830152604060248301525f60448301819052908290606490829084905af180156101e1576101d3575080f35b6101df91505f9061026d565b005b6040513d5f823e3d90fd5b5f80fd5b346101ec576101df36610229565b346101ec5760203660031901126101ec576101df5b600435906001600160a01b03821682036101ec57565b60e06003198201126101ec576004356001600160a01b03811681036101ec57916024359160c4116101ec5760449060c4356001600160a01b03811681036101ec5790565b90601f8019910116810190811067ffffffffffffffff82111761028f57604052565b634e487b7160e01b5f52604160045260245ffdfea264697066735822122043f115c1a2f831c3bca782e742a5081b4fcba06be9f1dac2e7294cfe3dd1b12864736f6c634300081b0033000000000000000000000000e2528c2e95bd0a985e067e7c28ec53a3f5255b41",
        "nonce": "0xb",
        "chainId": "0x14a34"
      },
      "additionalContracts": [],
      "isFixedGasLimit": false
    },
    {
      "hash": "0x57ee4f0aaf8f114b473ea557085c0ec215c4994904abb5b60ffc806191bba8e0",
      "transactionType": "CALL",
      "contractName": null,
      "contractAddress": "0xe2528c2e95bd0a985e067e7c28ec53a3f5255b41",
      "function": "setAVSGovernance(address)",
      "arguments": [
        "0x72A5016ECb9EB01d7d54ae48bFFB62CA0B8e57a5"
      ],
      "transaction": {
        "from": "0x88826a677adb340f0c7b8ccd6af6ad96a40b0085",
        "to": "0xe2528c2e95bd0a985e067e7c28ec53a3f5255b41",
        "gas": "0xa5b3",
        "value": "0x0",
        "input": "0xac1473db00000000000000000000000072a5016ecb9eb01d7d54ae48bffb62ca0b8e57a5",
        "nonce": "0xc",
        "chainId": "0x14a34"
      },
      "additionalContracts": [],
      "isFixedGasLimit": false
    }
  ],
  "receipts": [
    {
      "status": "0x1",
      "cumulativeGasUsed": "0x3bb2de",
      "logs": [],
      "logsBloom": "0x00000000000000000000000000000000000000000000000000000000000000000000000000000000000000000000000000000000000000000000000000000000000000000000000000000000000000000000000000000000000000000000000000000000000000000000000000000000000000000000000000000000000000000000000000000000000000000000000000000000000000000000000000000000000000000000000000000000000000000000000000000000000000000000000000000000000000000000000000000000000000000000000000000000000000000000000000000000000000000000000000000000000000000000000000000000",
      "type": "0x2",
      "transactionHash": "0x0d6c88831487da537214c60bb1aba97ddd29f428beccc5406aa383670aa61758",
      "transactionIndex": "0x22",
      "blockHash": "0xc9efe5fd7e82fc3a0b599946d89ac6caf50858e04937dd3c16d1e7d78fc7b767",
      "blockNumber": "0x1722a5e",
      "gasUsed": "0x33d49",
      "effectiveGasPrice": "0xf4a0f",
      "from": "0x88826a677adb340f0c7b8ccd6af6ad96a40b0085",
      "to": null,
      "contractAddress": "0x72a5016ecb9eb01d7d54ae48bffb62ca0b8e57a5",
      "l1BaseFeeScalar": "0x44d",
      "l1BlobBaseFee": "0x1d60",
      "l1BlobBaseFeeScalar": "0xa118b",
      "l1Fee": "0x2e44f50",
      "l1GasPrice": "0x425a37",
      "l1GasUsed": "0x252d"
    },
    {
      "status": "0x1",
      "cumulativeGasUsed": "0x3c2ad5",
      "logs": [
        {
          "address": "0xe2528c2e95bd0a985e067e7c28ec53a3f5255b41",
          "topics": [
            "0xea127a19d04e5d1a6170d01bddb42ffcd9aa8e8dc8bcdd2694c649e40655fe49",
            "0x00000000000000000000000088826a677adb340f0c7b8ccd6af6ad96a40b0085",
            "0x00000000000000000000000072a5016ecb9eb01d7d54ae48bffb62ca0b8e57a5"
          ],
          "data": "0x",
          "blockHash": "0xc9efe5fd7e82fc3a0b599946d89ac6caf50858e04937dd3c16d1e7d78fc7b767",
          "blockNumber": "0x1722a5e",
          "transactionHash": "0x57ee4f0aaf8f114b473ea557085c0ec215c4994904abb5b60ffc806191bba8e0",
          "transactionIndex": "0x23",
          "logIndex": "0x6c",
          "removed": false
        }
      ],
      "logsBloom": "0x00000000000000000000000000000000000000000000000000000000000000000000000000000000000000000000000000000000000000000000000000000000000000000000000000100000000010000000000000000000000000000010000000000000000000008000400400000000000000000000000000000000000000000000000000000000000000000000000000000000000000000000000000000000010000000000000000000000040000000000000000000000000000000000000000000000000000000000000000000004000000000000000000000000000000000000000000000000040000000000200000000000000000040000000000000000",
      "type": "0x2",
      "transactionHash": "0x57ee4f0aaf8f114b473ea557085c0ec215c4994904abb5b60ffc806191bba8e0",
      "transactionIndex": "0x23",
      "blockHash": "0xc9efe5fd7e82fc3a0b599946d89ac6caf50858e04937dd3c16d1e7d78fc7b767",
      "blockNumber": "0x1722a5e",
      "gasUsed": "0x77f7",
      "effectiveGasPrice": "0xf4a0f",
      "from": "0x88826a677adb340f0c7b8ccd6af6ad96a40b0085",
      "to": "0xe2528c2e95bd0a985e067e7c28ec53a3f5255b41",
      "contractAddress": null,
      "l1BaseFeeScalar": "0x44d",
      "l1BlobBaseFee": "0x1d60",
      "l1BlobBaseFeeScalar": "0xa118b",
      "l1Fee": "0x7c753a",
      "l1GasPrice": "0x425a37",
      "l1GasUsed": "0x640"
    }
  ],
  "libraries": [],
  "pending": [],
  "returns": {},
  "timestamp": 1744286622,
  "chain": 84532,
  "commit": "d7dde59"
}