{
  "transactions": [
    {
      "hash": "0x091d0839c4cc4a9a3e104786e40f1c03a924a6abea9842e2537d237f5cabee9c",
      "transactionType": "CALL",
      "contractName": null,
      "contractAddress": "0xc6e9cc75d299c0a16f1c2376dc5de7ebcfce55e4",
      "function": "executeFunction(address,bytes)",
      "arguments": [
        "0x2C34442fD5D21C0cE207DABA53EDE46038D02C77",
        "0x552410770000000000000000000000000000000000000000000000000000000000003039"
      ],
      "transaction": {
        "from": "0x2dcfbc2613b60ec755a2530f818d0e1a8ed1db3f",
        "to": "0xc6e9cc75d299c0a16f1c2376dc5de7ebcfce55e4",
        "gas": "0x4d1c1",
        "value": "0x38d7ea4c68000",
        "input": "0xf3eca33b0000000000000000000000002c34442fd5d21c0ce207daba53ede46038d02c770000000000000000000000000000000000000000000000000000000000000040000000000000000000000000000000000000000000000000000000000000002455241077000000000000000000000000000000000000000000000000000000000000303900000000000000000000000000000000000000000000000000000000",
        "nonce": "0x1",
        "chainId": "0xaa37dc"
      },
      "additionalContracts": [],
      "isFixedGasLimit": false
    }
  ],
  "receipts": [
    {
      "status": "0x1",
      "cumulativeGasUsed": "0x2435fc",
      "logs": [
        {
          "address": "0xb31d2cb502e25b30c651842c7c3293c51fe6d16f",
          "topics": [
            "0x61ed099e74a97a1d7f8bb0952a88ca8b7b8ebd00c126ea04671f92a81213318a"
          ],
          "data": "0x000000000000000000000000dc0d68899405673b932f0db7f8a49191491a5bcb00000000000000000000000000000000000000000000000000007919c888ce33",
          "blockHash": "0xaf4346c25cacd46a38075fa04b38b9606d488c56c639df957cf2b670d8e3d9b2",
          "blockNumber": "0x18fdc4e",
          "transactionHash": "0x091d0839c4cc4a9a3e104786e40f1c03a924a6abea9842e2537d237f5cabee9c",
          "transactionIndex": "0xd",
          "logIndex": "0x40",
          "removed": false
        },
        {
          "address": "0xb31d2cb502e25b30c651842c7c3293c51fe6d16f",
          "topics": [
            "0x07ea52d82345d6e838192107d8fd7123d9c2ec8e916cd0aad13fd2b60db24644"
          ],
          "data": "0x000000000000000000000000000000000000000000000000000000000000006000000000000000000000000000000000000000000000000000000000000000a000000000000000000000000000000000000000000000000000000000000000c00000000000000000000000000000000000000000000000000000000000000001000000000000000000000000d680ec569f269aa7015f7979b4f1239b5aa4582c0000000000000000000000000000000000000000000000000000000000000000000000000000000000000000000000000000000000000000000000000000000100000000000000000000000000000000000000000000000000000618c4c99b48",
          "blockHash": "0xaf4346c25cacd46a38075fa04b38b9606d488c56c639df957cf2b670d8e3d9b2",
          "blockNumber": "0x18fdc4e",
          "transactionHash": "0x091d0839c4cc4a9a3e104786e40f1c03a924a6abea9842e2537d237f5cabee9c",
          "transactionIndex": "0xd",
          "logIndex": "0x41",
          "removed": false
        },
        {
          "address": "0x6edce65403992e310a62460808c4b910d972f10f",
          "topics": [
            "0x1ab700d4ced0c005b164c0f789fd09fcbb0156d4c2041b8a3bfbcd961cd1567f"
          ],
          "data": "0x000000000000000000000000000000000000000000000000000000000000006000000000000000000000000000000000000000000000000000000000000001c0000000000000000000000000b31d2cb502e25b30c651842c7c3293c51fe6d16f000000000000000000000000000000000000000000000000000000000000013101000000000000000100009d28000000000000000000000000c6e9cc75d299c0a16f1c2376dc5de7ebcfce55e400009d35000000000000000000000000c6e9cc75d299c0a16f1c2376dc5de7ebcfce55e4e42904b08393600f446efce6208e2bcccf177c3064e5baf869a6753c4099b3f20000000000000000000000002dcfbc2613b60ec755a2530f818d0e1a8ed1db3f0000000000000000000000002c34442fd5d21c0ce207daba53ede46038d02c7700000000000000000000000000000000000000000000000000000000000000600000000000000000000000000000000000000000000000000000000000000024552410770000000000000000000000000000000000000000000000000000000000003039000000000000000000000000000000000000000000000000000000000000000000000000000000000000000000000000000000000000000000000000000000000000000000000000000022000100000000000000000000000000000000000000000000000000000000000f4240000000000000000000000000000000000000000000000000000000000000",
          "blockHash": "0xaf4346c25cacd46a38075fa04b38b9606d488c56c639df957cf2b670d8e3d9b2",
          "blockNumber": "0x18fdc4e",
          "transactionHash": "0x091d0839c4cc4a9a3e104786e40f1c03a924a6abea9842e2537d237f5cabee9c",
          "transactionIndex": "0xd",
          "logIndex": "0x42",
          "removed": false
        },
        {
          "address": "0xc6e9cc75d299c0a16f1c2376dc5de7ebcfce55e4",
          "topics": [
            "0x8f28ea9ddfc3da3e2ef3cd7ef51d18d5d1d77cb2e49e150f42a8ee0c225ffca9",
            "0x0000000000000000000000002dcfbc2613b60ec755a2530f818d0e1a8ed1db3f"
          ],
          "data": "0x0000000000000000000000002c34442fd5d21c0ce207daba53ede46038d02c770000000000000000000000000000000000000000000000000000000000000040000000000000000000000000000000000000000000000000000000000000002455241077000000000000000000000000000000000000000000000000000000000000303900000000000000000000000000000000000000000000000000000000",
          "blockHash": "0xaf4346c25cacd46a38075fa04b38b9606d488c56c639df957cf2b670d8e3d9b2",
          "blockNumber": "0x18fdc4e",
          "transactionHash": "0x091d0839c4cc4a9a3e104786e40f1c03a924a6abea9842e2537d237f5cabee9c",
          "transactionIndex": "0xd",
          "logIndex": "0x43",
          "removed": false
        }
      ],
      "logsBloom": "0x00000100000000000000000000000000000000001000000000000000400000400000000000004000200000000000000000000000000000000000000000000000000000000000000000000000000000000000000008000000000000000000000000000000000000008200000000000000000000000000000000000000004000000000000000000020000000080000000000000000000000000010000000000000000000008000000000100010000000000000000000400000000440000000000000000000010000000000100000000000000000040000000000000000000000000000040000000000000000000000002000000000000000000000000000000000",
      "type": "0x2",
      "transactionHash": "0x091d0839c4cc4a9a3e104786e40f1c03a924a6abea9842e2537d237f5cabee9c",
      "transactionIndex": "0xd",
      "blockHash": "0xaf4346c25cacd46a38075fa04b38b9606d488c56c639df957cf2b670d8e3d9b2",
      "blockNumber": "0x18fdc4e",
      "gasUsed": "0x37d38",
      "effectiveGasPrice": "0xf436b",
      "from": "0x2dcfbc2613b60ec755a2530f818d0e1a8ed1db3f",
      "to": "0xc6e9cc75d299c0a16f1c2376dc5de7ebcfce55e4",
      "contractAddress": null,
      "l1BaseFeeScalar": "0x1db0",
      "l1BlobBaseFee": "0x1",
      "l1BlobBaseFeeScalar": "0xd2730",
      "l1Fee": "0x2412e8087",
      "l1GasPrice": "0x2a5122bd",
      "l1GasUsed": "0x702"
    }
  ],
  "libraries": [],
  "pending": [],
  "returns": {},
  "timestamp": 1744213065,
  "chain": 11155420,
  "commit": "a42aa2e"
}